:100000000C9463000C948B000C948B000C948B006C
:100010000C948B000C948B000C948B000C948B0034
:100020000C948B000C948B000C948B000C948B0024
:100030000C948B000C948B000C948B000C948B0014
:100040000C949A040C948B000C940A050C94E40410
:100050000C948B000C948B000C948B000C948B00F4
:100060000C948B000C948B000000000024002700EF
:100070002A0000000000250028002B0000000000DE
:1000800023002600290004040404040404040202DA
:100090000202020203030303030301020408102007
:1000A0004080010204081020010204081020000012
:1000B0000008000201000003040700000000000027
:1000C00000003C05460811241FBECFEFD8E0DEBF7C
:1000D000CDBF22E0A2E9B1E001C01D92A03CB20771
:1000E000E1F711E0A0E0B1E0EAEFF5E102C0059030
:1000F0000D92A239B107D9F710E0C2E6D0E004C0F2
:100100002197FE010E94EE08C136D107C9F70E946F
:10011000DC050C94F00A0C94000096E0899FD00155
:100120001124A35BBD4F90967C936E935F9791E0F3
:1001300091969C9391979091B902E091BA02F091B7
:10014000BB02992339F0309751F0811108C080919A
:10015000690204C0309719F05C968C910994089557
:10016000833081F028F4813099F08230A1F0089535
:100170008730A9F08830B9F08430D1F480918000C4
:100180008F7D03C0809180008F77809380000895D9
:1001900084B58F7702C084B58F7D84BD089580912A
:1001A000B0008F7703C08091B0008F7D8093B00046
:1001B0000895CF93DF93282F30E0F901E255FF4FE8
:1001C0008491F901E656FF4FD491F901EA57FF4FA8
:1001D000C491CC2391F081110E94B000EC2FF0E08B
:1001E000EE0FFF1FE458FF4FA591B491EC91ED2362
:1001F00081E090E021F480E002C080E090E0DF91B7
:10020000CF9108951F93CF93DF93282F30E0F9010A
:10021000E255FF4F8491F901E656FF4FD491F90161
:10022000EA57FF4FC491CC23C1F0162F81110E94D1
:10023000B000EC2FF0E0EE0FFF1FEE58FF4FA5913E
:10024000B4919FB7F894111104C08C91D095D82324
:1002500002C0EC91DE2BDC939FBFDF91CF911F9109
:100260000895CF93DF9390E0FC01E656FF4F249171
:10027000FC01EA57FF4F8491882361F190E0880FD9
:10028000991FFC01E859FF4FC591D491FC01EE582C
:10029000FF4FA591B491611109C09FB7F89488816F
:1002A000209582238883EC912E230BC0623061F469
:1002B0009FB7F8948881322F309583238883EC91FF
:1002C0002E2B2C939FBF06C08FB7F894E8812E2B5E
:1002D00028838FBFDF91CF9108953FB7F894809125
:1002E000A6019091A701A091A801B091A90126B5FE
:1002F000A89B05C02F3F19F00196A11DB11D3FBF5E
:10030000BA2FA92F982F8827820F911DA11DB11DEB
:10031000BC01CD0142E0660F771F881F991F4A95E7
:10032000D1F708952FB7F8946091A2017091A301BD
:100330008091A4019091A5012FBF08950F931F9361
:10034000CF93DF93C82FD62F86E0C89FF0011124EA
:10035000E35BFD4F11A2878D90A181309105D9F00B
:1003600040F082309105A9F10397F1F560E070E06B
:1003700034C06623C9F161E070E08C2F0E948D00CB
:100380000E9492016093A5027093A6028093A70237
:100390009093A80229C00E9492010091A502109199
:1003A000A6022091A7023091A802AB01BC01401B1C
:1003B000510B620B730B8091B7029091B802A0E0D1
:1003C000B0E084179507A607B70718F462E070E05D
:1003D00004C0D11109C063E070E08C2FDF91CF9190
:1003E0001F910F910C948D00DF91CF911F910F9170
:1003F0000895862F642F0C943101862F642F0C945E
:100400000201862F0C94D9000895CF92DF92EF92CB
:10041000FF920F931F93CF93DF936C017A018B01AF
:10042000C0E0D0E0CE15DF0581F0D8016D918D01DF
:10043000D601ED91FC910190F081E02DC601099566
:10044000892B11F02196EECF7E01C701DF91CF916C
:100450001F910F91FF90EF90DF90CF90089580E073
:1004600090E00895FC01538D448D252F30E0842FBA
:1004700090E0821B930B541710F0CF9608950197CC
:100480000895FC01918D828D981761F0828DDF01B6
:10049000A80FB11D5D968C91928D9F5F9F73928F77
:1004A00090E008958FEF9FEF0895FC01918D828D6C
:1004B000981731F0828DE80FF11D858D90E0089539
:1004C0008FEF9FEF0895FC01918D228D892F90E091
:1004D000805C9F4F821B91098F73992708958AEA48
:1004E00091E00E94630221E0892B09F420E0822F31
:1004F0000895FC01848DDF01A80FB11DA35ABF4FE1
:100500002C91848D90E001968F739927848FA68912
:10051000B7892C93A089B1898C91837080648C9366
:10052000938D848D981306C00288F389E02D808115
:100530008F7D80830895EF92FF920F931F93CF9347
:10054000DF93EC0181E0888F9B8D8C8D981305C023
:10055000E889F989808185FD26C0F62E0B8D10E093
:100560000F5F1F4F0F731127E02E8C8DE8120CC008
:100570000FB607FCFACFE889F989808185FFF5CFAE
:10058000CE010E947902F1CF8B8DFE01E80FF11DA3
:10059000E35AFF4FF0829FB7F8940B8FEA89FB89EB
:1005A000808180620AC09FB7F894EE89FF896083DA
:1005B000E889F98980818370806480839FBF81E0AE
:1005C00090E0DF91CF911F910F91FF90EF900895F0
:1005D000CF93DF93EC01888D8823C9F0EA89FB89EA
:1005E000808185FD05C0A889B9898C9186FD0FC0E1
:1005F0000FB607FCF5CF808185FFF2CFA889B989B6
:100600008C9185FFEDCFCE010E947902E7CFDF917B
:10061000CF91089580E090E0892B29F00E946F022D
:1006200081110C94000008952F923F924F925F9297
:100630006F927F928F929F92AF92BF92CF92DF92F2
:10064000EF92FF920F931F93CF93DF93CDB7DEB757
:1006500060970FB6F894DEBF0FBECDBF182F84E0B1
:10066000898360E089810E94020199819F5F99835B
:100670009F30B9F7E0E1E98361E089810E940201DE
:10068000F981FF5FF983F631B9F796E6A92E91E07B
:10069000B92E2CE6C22E21E0D22E3EE1E32E31E02F
:1006A000F32E84E291E098878F834AE2842E41E022
:1006B000942E50E3652E51E0752EE6E3F1E0FE83C3
:1006C000ED838CE391E09C838B83E2E4F1E0FA8399
:1006D000E98388E491E09A878987EEE4F1E0FC877A
:1006E000EB87188A1F864F84FEE04F0E60E0842D52
:1006F0000E940201103311F4F60142C0113311F4CB
:10070000F5013EC0123329F4EF85F889E05AFE4F17
:1007100037C0133329F4EF85F889E65AFE4F30C00D
:10072000143329F4EF85F889EC5AFE4F29C01533AC
:1007300019F4EB85FC8524C0163319F4E985FA8594
:100740001FC0173319F4E981FA811AC0183319F45C
:10075000EB81FC8115C0193319F4ED81FE8110C0C5
:10076000133511F4F3010CC0123511F4F40108C073
:10077000143419F4EF81F88503C01D3411F4F70126
:10078000508006E087E0282E312C852D90E09E8752
:100790008D8760E08FEF800F0E9402018D859E851E
:1007A000022C02C0959587950A94E2F780FF02C05B
:1007B00061E001C060E0802F0E94020191E0291AEF
:1007C00031080F5F0E3029F761E0842D0E9402018D
:1007D000EF85F8893196F88BEF87FFEFAF1ABF0AE4
:1007E0008FEFC81AD80A9FEFE91AF90AEF81F88546
:1007F0003196F887EF83FFEF8F1A9F0A8FEF681A01
:10080000780AED81FE813196FE83ED838B819C8198
:1008100001969C838B83E981FA813196FA83E9837F
:1008200089859A8501969A878987EB85FC8531961B
:10083000FC87EB878F859889069709F054CF6096DF
:100840000FB6F894DEBF0FBECDBFDF91CF911F91E1
:100850000F91FF90EF90DF90CF90BF90AF909F905F
:100860008F907F906F905F904F903F902F90089562
:10087000009769F0FC0101900020E9F73197AF0182
:10088000481B590BBC018AEA91E00C94050280E0F8
:1008900090E00895CF93DF930E943804EC018EE836
:1008A00091E00E9438048C0F9D1FDF91CF91089535
:1008B0000E94DB0AEF92FF920F931F93CF93DF9377
:1008C000EC017B018A0188819981009729F02A81B6
:1008D0003B8124173507F8F4B8016F5F7F4F0E9402
:1008E000150A009759F0998388831B830A832C810A
:1008F0003D81232B81F4FC0110820DC088819981F8
:10090000009711F00E948C09198218821D821C82A6
:100910001B821A8207C01D830C83B70188819981CD
:100920000E94E90ACE01DF91CF911F910F91FF90B4
:10093000EF9008951F920F920FB60F9211242F93EC
:100940003F938F939F93AF93BF938091A201909118
:10095000A301A091A401B091A5013091A10123E0D0
:10096000230F2D3720F40196A11DB11D05C026E8E7
:10097000230F0296A11DB11D2093A1018093A20116
:100980009093A301A093A401B093A5018091A60127
:100990009091A701A091A801B091A9010196A11D74
:1009A000B11D8093A6019093A701A093A801B093D5
:1009B000A901BF91AF919F918F913F912F910F907E
:1009C0000FBE0F901F9018951F920F920FB60F92A7
:1009D00011242F933F934F935F936F937F938F9344
:1009E0009F93AF93BF93EF93FF938AEA91E00E94A6
:1009F0007902FF91EF91BF91AF919F918F917F917C
:100A00006F915F914F913F912F910F900FBE0F907B
:100A10001F9018951F920F920FB60F9211242F93CB
:100A20008F939F93EF93FF93E091BA01F091BB01F5
:100A30008081E091C001F091C10182FD12C09081DE
:100A40008091C3018F5F8F732091C401821751F091
:100A5000E091C301F0E0E655FE4F958F8093C3010E
:100A600001C08081FF91EF919F918F912F910F9005
:100A70000FBE0F901F9018951092AD011092AC010F
:100A800088EE93E0A0E0B0E08093AE019093AF01D8
:100A9000A093B001B093B10186E791E09093AB01D0
:100AA0008093AA0185EC90E09093B7018093B60102
:100AB00084EC90E09093B9018093B80180EC90E0D1
:100AC0009093BB018093BA0181EC90E09093BD01BB
:100AD0008093BC0182EC90E09093BF018093BE01B3
:100AE00086EC90E09093C1018093C0011092C30105
:100AF0001092C4011092C5011092C60110924F02CB
:100B000010925302109252021092540288E891E01F
:100B100090934E0280934D02EDE4F2E0148E10A209
:100B2000178E11A2369682E0E938F807B9F784E00B
:100B300091E09093B0028093AF0280E091E09093B7
:100B4000B2028093B10284E08093B3028093B40236
:100B500088E091E09093AE028093AD028AE090E04D
:100B60009093B6028093B50284EF91E09093B8021F
:100B70008093B7021092BB021092BA021092A9029F
:100B80001092AA021092AB021092AC021092B9021B
:100B9000109248021092470210924A0210924902A3
:100BA00010924C0210924B0240E050E060E971E07C
:100BB00087E492E00C945A04789484B5826084BDF2
:100BC00084B5816084BD85B5826085BD85B5816051
:100BD00085BD80916E00816080936E0010928100CF
:100BE000809181008260809381008091810081608A
:100BF000809381008091800081608093800080914B
:100C0000B10084608093B1008091B00081608093D6
:100C1000B00080917A00846080937A0080917A009D
:100C2000826080937A0080917A00816080937A005C
:100C300080917A00806880937A001092C100C0E0B1
:100C400061E08C2F0E943101CF5FC630C9F761E0AF
:100C500084E10E94310161E085E10E94310161E09F
:100C60008C2F0E943101CF5FC431C9F7E091BA01E6
:100C7000F091BB0182E08083E091B601F091B70171
:100C80001082E091B801F091B9018FEC808310924D
:100C9000C201E091BE01F091BF0186E08083E09146
:100CA000BC01F091BD01808180618083E091BC0135
:100CB000F091BD01808188608083E091BC01F0915A
:100CC000BD01808180688083E091BC01F091BD010D
:100CD00080818F7D808322242394812C912C540148
:100CE000839466246A94762C66E0362E2092B902AC
:100CF0000E9492010091A9021091AA022091AB02D8
:100D00003091AC02AB01BC01401B510B620B730B69
:100D10008091B5029091B602A0E0B0E084179507EB
:100D2000A607B707B8F4C0E023C010E089A181117D
:100D300011E02696F2E0C938DF07C1F70E94920160
:100D40006093A9027093AA028093AB029093AC02C5
:100D50001111BBC01092B902C4C0E091AF02F09172
:100D6000B002EC0FF11D62E080810E943101CF5F83
:100D70008091B302C81788F3512C34C0C42DD0E041
:100D8000E091AF02F091B002EC0FFD1F80810E9454
:100D9000D9002496CC0FDD1FC35BDD4F892B09F0F2
:100DA0004BC0888199818C299D299983888343949C
:100DB0008091B302481610F3E091B102F091B202B3
:100DC000E00FF11F61E080810E9402018091B10279
:100DD0009091B202FC01E00FF11F60E080810E945F
:100DE000310153948091B402581658F5052D10E046
:100DF000E091B102F091B202E00FF11F61E0808159
:100E00000E943101E091B102F091B202E00FF11FB6
:100E100060E080810E940201D501C401052C04C05C
:100E2000880F991FAA1FBB1F0A94D2F76C017C017F
:100E3000E094F094412CBCCF888199818E219F2130
:100E4000B4CFCDE4D2E0FE01878D90A1892B21F4AF
:100E5000148E768E658E11A2369622E0E938F2075E
:100E600099F710E08091B302181708F05ECF00E008
:100E7000E12EF12CC701880F991FFC01EB5AFD4FA1
:100E80007F012091B4020217F0F4F70140815181F3
:100E9000002E02C0569547950A94E2F7642F6170C0
:100EA000129F90011124200F311DEDE4F2E080E04B
:100EB000A58DB68D2A173B0709F4DEC08F5F3696E5
:100EC0008A30B1F7BCC01F5FCDCF80916E028823FE
:100ED00009F440CF80916C0290916D02019709F066
:100EE00039CF8091A001882309F471C080919E01BF
:100EF0008B32A9F440919A0150919B0160919C0121
:100F000070919D018091960190919701A091980117
:100F1000B0919901840F951FA61FB71F16C08D327F
:100F2000E9F480919A0190919B01A0919C01B0916C
:100F30009D014091960150919701609198017091A7
:100F40009901841B950BA60BB70B8093920190938C
:100F50009301A0939401B093950139C08A32D9F4DA
:100F600020919A0130919B0140919C0150919D01EB
:100F700060919601709197018091980190919901EB
:100F80000E949D0860939201709393018093940155
:100F9000909395011CC08F32D1F460919A017091A9
:100FA0009B0180919C0190919D012091960130912F
:100FB000970140919801509199010E94AD082093AA
:100FC00092013093930140939401509395010091C5
:100FD0004B0210914C02C0E0D0E0C017D10764F57D
:100FE0000E94920120914B0230914C02C217D3070C
:100FF00030F4E0914702F0914802309729F41092C2
:101000009F01EFE9F1E002C0EC0FFD1F50806B0182
:101010007C0124EFC20E21E0D21EE11CF11C0E94D3
:1010200092016C157D058E059F0520F4852D0E948B
:101030001403F5CF2196D1CF0E940A0357CE40FF6B
:101040001DC0EDE4F2E080E090E0448D411118C055
:10105000E091AD02F091AE02E20FF31F7081389E75
:10106000A001399E500D1124FA01E35BFD4F748FEE
:10107000368F258F10A2178E0E949E010F5F01CF21
:10108000019636968A30910501F7F8CF8091470294
:10109000909148020C948C090E948E08A59F900D97
:1010A000B49F900DA49F800D911D112408952F923F
:1010B0003F924F925F926F927F928F929F92AF92E8
:1010C000BF92CF92DF92EF92FF920F931F93CF9335
:1010D000DF93CDB7DEB7CA1BDB0B0FB6F894DEBFCC
:1010E0000FBECDBF09942A88398848885F846E84F2
:1010F0007D848C849B84AA84B984C884DF80EE803C
:10110000FD800C811B81AA81B981CE0FD11D0FB644
:10111000F894DEBF0FBECDBFED010895A29FB001D0
:10112000B39FC001A39F700D811D1124911DB29F1B
:10113000700D811D1124911D0895DB018F939F93E4
:101140000E944C08BF91AF91A29F800D911DA39F5B
:10115000900DB29F900D11240895052E97FB1EF45B
:1011600000940E94C40857FD07D00E94CC0807FCD9
:1011700003D04EF40C94C4085095409530952195B9
:101180003F4F4F4F5F4F08959095809570956195B3
:101190007F4F8F4F9F4F0895A1E21A2EAA1BBB1BB2
:1011A000FD010DC0AA1FBB1FEE1FFF1FA217B30733
:1011B000E407F50720F0A21BB30BE40BF50B661F49
:1011C000771F881F991F1A9469F76095709580950D
:1011D00090959B01AC01BD01CF010895EE0FFF1F5B
:1011E0000590F491E02D09940F931F93CF93DF9313
:1011F0008230910510F482E090E0E091BE02F0911F
:10120000BF0220E030E0A0E0B0E0309719F140816B
:1012100051810281138148175907C8F08417950737
:1012200069F4109731F012960C93129713961C9351
:1012300027C00093BE021093BF0222C021153105C2
:1012400019F04217530718F49A01BD01EF01DF01AD
:10125000F801DBCF21153105F9F0281B390B2430BB
:10126000310580F48A819B816115710521F0FB01B4
:101270009383828304C09093BF028093BE02FE01D9
:10128000329644C0FE01E20FF31F819391932250E6
:101290003109398328833AC02091BC023091BD02C4
:1012A000232B41F420911A0130911B013093BD0290
:1012B0002093BC02209118013091190121153105AC
:1012C00041F42DB73EB740911C0150911D01241BE4
:1012D000350BE091BC02F091BD02E217F307A0F4D8
:1012E0002E1B3F0B2817390778F0AC014E5F5F4F7C
:1012F0002417350748F04E0F5F1F5093BD024093EF
:10130000BC028193919302C0E0E0F0E0CF01DF9155
:10131000CF911F910F910895CF93DF93009709F418
:1013200081C0FC01329713821282A091BE02B0915B
:10133000BF02109781F420813181820F931F209189
:10134000BC023091BD022817390751F5F093BD0258
:10135000E093BC0267C0ED0120E030E0CE17DF076C
:1013600040F44A815B819E0141155105F1F0EA018B
:10137000F5CFD383C28340815181840F951FC81755
:10138000D90759F488819981840F951F029691831A
:1013900080838A819B81938382832115310529F47F
:1013A000F093BF02E093BE023DC0E901FB83EA83F4
:1013B00049915991C40FD51FEC17FD0761F4808145
:1013C0009181840F951F0296E90199838883828118
:1013D00093819B838A83E0E0F0E012968D919C914B
:1013E0001397009719F0FD01DC01F7CF8D919C91C7
:1013F00011979D012E5F3F4F820F931F2091BC02DA
:101400003091BD022817390769F4309729F41092FA
:10141000BF021092BE0202C013821282B093BD02BC
:10142000A093BC02DF91CF910895A0E0B0E0EBE182
:10143000FAE00C945B08EC01009721F4CB010E94C8
:10144000F408B4C0FC01E60FF71F9C0122503109DB
:10145000E217F30708F4A8C0D9010D911C91119768
:1014600006171707B0F00530110508F49BC0C80136
:1014700004978617970708F495C002501109061BB8
:10148000170B019311936D937C93CF010E948C09EC
:1014900089C05B01A01AB10A4C01800E911EA09177
:1014A000BE02B091BF02612C712CE12CF12C10977F
:1014B00009F446C08D919C911197A815B905B1F515
:1014C0006C0142E0C40ED11CCA14DB0478F14C015B
:1014D0008A189B08640142E0C40ED11C1296BC908D
:1014E00012971396AC91B5E0CB16D10440F0B282BE
:1014F000A38391828082D9016D937C9309C00E5F92
:101500001F4F800F911FF90191838083EB2DFA2FDC
:10151000E114F10431F0D7011396FC93EE93129786
:1015200041C0F093BF02E093BE023CC0681679064A
:1015300008F43C017D0112960D90BC91A02DB7CF0F
:101540008091BC029091BD0288169906E1F466165E
:101550007706C8F48091180190911901009741F421
:101560008DB79EB740911C0150911D01841B950BB6
:10157000E817F907C8F4F093BD02E093BC02F90143
:10158000718360830FC0CB010E94F4087C01009737
:1015900059F0A801BE010E94E00ACE010E948C0908
:1015A000C70104C0CE0102C080E090E0CDB7DEB735
:1015B000EEE00C94770881E090E0F8940C94F00A47
:1015C000FB01DC0102C001900D9241505040D8F760
:1015D0000895FB01DC0101900D920020E1F70895D0
:1015E00010E0C2E6D0E004C0FE010E94EE082196A1
:0A15F000C336D107C9F7F894FFCF06
:1015FA000506070D0C0203043132334434353643F1
:10160A00373839422A3023410000C00280000024C2
:10161A001818240000040810200000003C3C0000B8
:10162A0000183C3C180018241C0404181824182418
:10163A0024183C24040404041824203824183C20C8
:10164A003804043824243C04040418240804241804
:10165A0018242408103C08182808083C18242424B4
:10166A002418000000009B0205023202E80263020D
:10167A004102550200000000F901FD0101020D0AB4
:02168A0000005E
:107800000C94343C0C94513C0C94513C0C94513CE1
:107810000C94513C0C94513C0C94513C0C94513CB4
:107820000C94513C0C94513C0C94513C0C94513CA4
:107830000C94513C0C94513C0C94513C0C94513C94
:107840000C94513C0C94513C0C94513C0C94513C84
:107850000C94513C0C94513C0C94513C0C94513C74
:107860000C94513C0C94513C11241FBECFEFD8E036
:10787000DEBFCDBF11E0A0E0B1E0ECE9FFE702C060
:1078800005900D92A230B107D9F712E0A2E0B1E065
:1078900001C01D92AD30B107E1F70E942D3D0C945F
:1078A000CC3F0C94003C982F959595959595959582
:1078B000905D8F708A307CF0282F295A8091C0000B
:1078C00085FFFCCF9093C6008091C00085FFFCCF60
:1078D0002093C6000895282F205DF0CF982F809127
:1078E000C00085FFFCCF9093C6000895EF92FF92F1
:1078F0000F931F93EE24FF2487018091C00087FD22
:1079000017C00894E11CF11C011D111D81E4E8164B
:1079100082E4F8068FE0080780E0180770F3E09132
:107920000401F091050109958091C00087FFE9CF1E
:107930008091C6001F910F91FF90EF9008950E94D3
:10794000763C982F8091C00085FFFCCF9093C600B5
:1079500091362CF490330CF09053892F089597555D
:10796000892F08951F930E949F3C182F0E949F3CCF
:107970001295107F810F1F9108951F93182F882350
:1079800021F00E94763C1150E1F71F9108951F935A
:10799000182F0E94763C803249F0809103018F5F5E
:1079A000809303018530C1F01F9108958091C0003C
:1079B00085FFFCCF84E18093C6008091C00085FFE5
:1079C000FCCF1093C6008091C00085FFFCCF80E102
:1079D0008093C6001F910895E0910401F091050184
:1079E00009951F9108950E94763C803241F0809164
:1079F00003018F5F80930301853081F008958091AA
:107A0000C00085FFFCCF84E18093C6008091C00058
:107A100085FFFCCF80E18093C6000895E0910401CA
:107A2000F09105010995089540E951E08823A1F0FE
:107A30002D9A28EE33E0FA013197F1F721503040CA
:107A4000D1F72D9828EE33E0FA013197F1F7215064
:107A50003040D1F7815061F708953F924F925F9285
:107A60006F927F928F929F92AF92BF92CF92DF924E
:107A7000EF92FF920F931F93CF93DF93000080E16B
:107A80008093C4001092C50088E18093C10086E015
:107A90008093C2005098589A259A81E00E94143D24
:107AA00024E1F22E9EE1E92E85E9D82E0FE0C02ECA
:107AB00010E1B12EAA24A394B1E49B2EA6E58A2E50
:107AC000F2E57F2EE0E26E2E79E4572E63E5462E36
:107AD00050E5352E0E94763C8033B1F18133B9F107
:107AE000803409F46FC0813409F476C0823409F41B
:107AF00085C0853409F488C0803531F1823521F1A3
:107B0000813511F1853509F485C0863509F48DC0BC
:107B1000843609F496C0843709F403C1853709F423
:107B200072C1863709F466C0809103018F5F80932C
:107B30000301853079F6E0910401F0910501099582
:107B40000E94763C803351F60E94F33CC3CF0E94E2
:107B5000763C803249F78091C00085FFFCCFF092DF
:107B6000C6008091C00085FFFCCF9092C600809136
:107B7000C00085FFFCCF8092C6008091C00085FFC9
:107B8000FCCF7092C6008091C00085FFFCCF609250
:107B9000C6008091C00085FFFCCF5092C600809146
:107BA000C00085FFFCCF4092C6008091C00085FFD9
:107BB000FCCF3092C6008091C00085FFFCCFB09210
:107BC000C60088CF0E94763C863808F4BDCF0E945C
:107BD000763C0E94F33C7ECF0E94763C803809F4CC
:107BE0009CC0813809F40BC1823809F43CC1883942
:107BF00009F48FC080E00E94C73C6CCF84E10E94F2
:107C0000BD3C0E94F33C66CF85E00E94BD3C0E94D3
:107C1000F33C60CF0E94763C809306010E94763C44
:107C2000809307010E94F33C55CF0E94763C80333D
:107C300009F41DC183E00E94BD3C80E00E94C73C66
:107C400049CF0E94763C809309020E94763C809343
:107C5000080280910C028E7F80930C020E94763C79
:107C6000853409F415C18091080290910902892B8D
:107C700089F000E010E00E94763CF801E85FFE4FDA
:107C800080830F5F1F4F80910802909109020817AF
:107C9000190788F30E94763C803209F045CF809125
:107CA0000C0280FF01C16091060170910701660F0F
:107CB000771F7093070160930601A0910802B091AD
:107CC00009021097C9F0E8E0F1E09B01AD014E0F09
:107CD0005F1FF999FECF32BD21BD819180BDFA9A17
:107CE000F99A2F5F3F4FE417F50799F76A0F7B1F4B
:107CF00070930701609306018091C00085FFFCCF5F
:107D0000F092C6008091C00085FFFCCFB092C60003
:107D1000E1CE83E00E94C73CDDCE82E00E94C73CFA
:107D2000D9CE0E94763C809309020E94763C8093D3
:107D300008028091060190910701880F991F909386
:107D40000701809306010E94763C853409F4A6C0A1
:107D500080910C028E7F80930C020E94763C8032D0
:107D600009F0B8CE8091C00085FFFCCFF092C6002C
:107D7000609108027091090261157105B9F140E046
:107D800050E080910C02A82FA170B82FB27011C0E2
:107D9000BB2309F45CC0E0910601F0910701319624
:107DA000F0930701E09306014F5F5F4F46175707B7
:107DB000E8F4AA2369F3F999FECF209106013091E6
:107DC000070132BD21BDF89A90B58091C00085FFB2
:107DD000FCCF9093C6002F5F3F4F30930701209355
:107DE00006014F5F5F4F4617570718F38091C00099
:107DF00085FDE5CE8091C00085FFF8CFE0CE81E023
:107E00000E94C73C67CE0E94763C803209F08CCE3F
:107E10008091C00085FFFCCFF092C6008091C00029
:107E200085FFFCCFE092C6008091C00085FFFCCFAB
:107E3000D092C6008091C00085FFFCCFC092C600E2
:107E40008091C00085FFFCCFB092C60043CEE09188
:107E50000601F091070194918091C00085FFFCCF4D
:107E60009093C6009CCF80E10E94C73C33CE0E9415
:107E7000763C0E94763C182F0E94763C112309F430
:107E800083C0113009F484C08FE00E94C73C22CE29
:107E900080910C02816080930C02E5CE80910C02EF
:107EA000816080930C0259CF809107018823880F4D
:107EB000880B8A2180930B02809106019091070123
:107EC000880F991F90930701809306018091080203
:107ED00080FF09C080910802909109020196909359
:107EE000090280930802F894F999FECF1127E091D6
:107EF0000601F0910701C8E0D1E08091080290915D
:107F00000902103091F40091570001700130D9F34B
:107F100003E000935700E89500915700017001308D
:107F2000D9F301E100935700E89509901990009169
:107F3000570001700130D9F301E000935700E89534
:107F40001395103498F011270091570001700130FB
:107F5000D9F305E000935700E895009157000170B0
:107F60000130D9F301E100935700E895329602976A
:107F700009F0C7CF103011F00296E5CF112480919F
:107F8000C00085FFB9CEBCCE8EE10E94C73CA2CD19
:0C7F900085E90E94C73C9ECDF894FFCF0D
:027F9C00800063
:040000030000780081
:00000001FF
